:100000000C94CF000C94F9000C94F9000C94F900B6
:100010000C94F9000C94F9000C94F9000C94F9007C
:100020000C94F9000C94F9000C94F9000C94F9006C
:100030000C94F9000C94F9000C94F9000C94F9005C
:100040000C94F9000C94F9000C9458130C94F900DA
:100050000C94CC130C94A2130C94F9000C94F9009A
:100060000C94F9000C94F9000C94F9000C94F9002C
:100070000C94F9000C94F9000C94F9000C94F9001C
:100080000C94F9000C94F9000C94F900084AD73B41
:100090003BCE016E84BCBFFDC12F3D6C74319ABD57
:1000A00056833DDA3D00C77F11BED9E4BB4C3E917B
:1000B0006BAAAABE000000803F072C7AA5BA6CC5C7
:1000C00090DA3B9365FC8BBC53F810FD3C56928351
:1000D0004DBD879D3AB63DCBC9BF5BBE73DA0FC934
:1000E0003F004E414E494E495459494E46CDCCCC25
:1000F0003D0AD7233C17B7D13877CC2B329595E6FC
:10010000241FB14F0A000020410000C84200401CDB
:100110004620BCBE4CCA1B0E5AAEC59D74000021C1
:1001200000240027002A0000002200250028002BC0
:100130000000002000230026002900020202020223
:10014000020202040404040404040403030303037A
:10015000030303010101010101010101020408106F
:100160002040800102040810204080010204081091
:10017000204080804020100804020100000001029D
:1001800000090A0000000004030807000000000046
:100190000000000000000000000000000314112413
:1001A0001FBECFEFD0E4DEBFCDBF23E0ACEEB2E0A8
:1001B00001C01D92A43EB207E1F712E0A0E0B1E059
:1001C000E4EEF2E400E00BBF02C007900D92AC3EFB
:1001D000B107D9F710E0CFECD0E004C02197FE01C1
:1001E0000E948C1CCE3CD107C9F70E943B140C9492
:1001F00070210C94000081508A3080F5E82FF0E0E7
:10020000EC5FFE4F0C948C1C18011C010E011401B4
:100210002E012E011F01250129012F01809180004F
:100220008F77809380000895809180008F7DF9CF33
:1002300084B58F7784BD089584B58F7DFBCF809181
:10024000B0008F778093B00008958091B0008F7DCB
:10025000F9CF809190008F778093900008958091DE
:1002600090008F7DF9CFCF93DF93282F30E0F901F5
:10027000E558FE4F8491F901E55AFE4FD491F901FA
:10028000E55CFE4FC491CC23A1F081110E94FB00DC
:10029000EC2FF0E0EE0FFF1FEF5CFE4FA591B49145
:1002A000EC91ED2381E090E009F480E0DF91CF91C3
:1002B000089580E090E0FACF1F93CF93DF93282F2B
:1002C00030E0F901E558FE4F8491F901E55AFE4FFF
:1002D000D491F901E55CFE4FC491CC23A9F0162F0F
:1002E00081110E94FB00EC2FF0E0EE0FFF1FE95D93
:1002F000FE4FA591B4918FB7F894EC91111108C0FD
:10030000D095DE23DC938FBFDF91CF911F910895AD
:10031000DE2BF8CFCF93DF9390E0FC01E55AFE4F40
:100320002491855C9E4FFC0184918823C9F090E064
:10033000880F991FFC01E35EFE4FA591B491FC016B
:10034000E95DFE4FC591D49161110DC09FB7F8943E
:100350008C91209582238C938881282328839FBFAA
:10036000DF91CF910895623051F49FB7F8943C919A
:10037000822F809583238C93E8812E2BEFCF8FB72C
:10038000F894EC912E2B2C938FBFEACF3FB7F894C3
:100390008091F3029091F402A091F502B091F602DF
:1003A00026B5A89B05C02F3F19F00196A11DB11DD0
:1003B0003FBFBA2FA92F982F8827BC01CD01620F0C
:1003C000711D811D911D42E0660F771F881F991FC7
:1003D0004A95D1F708958F929F92AF92BF92CF9294
:1003E000DF92EF92FF920E94C6014B015C0184E60E
:1003F000C82ED12CE12CF12C0E94C6016819790974
:100400008A099B09683E734081059105A8F321E0A4
:10041000C21AD108E108F10888EE880E83E0981E20
:10042000A11CB11CC114D104E104F10429F7FF900F
:10043000EF90DF90CF90BF90AF909F908F900895F6
:100440002FB7F8946091EF027091F0028091F10261
:100450009091F2022FBF08950895AF92BF92CF926C
:10046000DF92EF92FF920F931F93CF93DF936C0174
:100470007B018B01040F151FEB015E01AE18BF0855
:10048000C017D10759F06991D601ED91FC91019007
:10049000F081E02DC6010995892B79F7C501DF911F
:1004A000CF911F910F91FF90EF90DF90CF90BF9071
:1004B000AF900895FC01538D448D252F30E0842F9B
:1004C00090E0821B930B541710F0CF96089501977C
:1004D0000895FC01918D828D981761F0A28DAE0F69
:1004E000BF2FB11D5D968C91928D9F5F9F73928FF0
:1004F00090E008958FEF9FEF08950F931F930E9450
:1005000020026093FF027093000380930103909395
:10051000020387EF92E00E94690297FF1DC00E94CC
:1005200020020091FF0210910003209101033091FD
:100530000203601B710B820B930B0091FB02109165
:10054000FC022091FD023091FE02601771078207C4
:100550009307F8F28FEF9FEF1F910F910895FC0121
:10056000918D828D981731F0828DE80FF11D858D68
:1005700090E008958FEF9FEF0895FC01918D228DFB
:10058000892F90E0805C9F4F821B91098F73992780
:10059000089587EF92E00E94BD0221E0892B09F4C3
:1005A00020E0822F0895FC01A48DA80FB92FB11D62
:1005B000A35ABF4F2C91848D90E001968F73992799
:1005C000848FA689B7892C93A089B1898C91837077
:1005D00080648C93938D848D981306C00288F38970
:1005E000E02D80818F7D80830895EF92FF920F939D
:1005F0001F93CF93DF93EC0181E0888F9B8D8C8DCF
:1006000098131AC0E889F989808185FF15C09FB7C2
:10061000F894EE89FF896083E889F9898081837085
:10062000806480839FBF81E090E0DF91CF911F9134
:100630000F91FF90EF900895F62E0B8D10E00F5F55
:100640001F4F0F731127E02E8C8D8E110CC00FB62B
:1006500007FCFACFE889F989808185FFF5CFCE01C3
:100660000E94D302F1CFEB8DEC0FFD2FF11DE35A69
:10067000FF4FF0829FB7F8940B8FEA89FB89808146
:100680008062CFCFCF93DF93EC01888D8823B9F0C0
:10069000AA89BB89E889F9898C9185FD03C080818D
:1006A00086FD0DC00FB607FCF7CF8C9185FFF2CF0A
:1006B000808185FFEDCFCE010E94D302E9CFDF918B
:1006C000CF91089580E090E0892B29F00E94C90223
:1006D00081110E94000080E090E0892B49F080E0C9
:1006E00090E0892B29F00E94000081110C940000F9
:1006F0000895862F642F0C948A01FC0181890E9441
:10070000330121E0892B09F420E0822F0895CF9353
:10071000DF93EC016FA76F3F61F0862F61E00E94CD
:100720008A016EA581E068278FA5DF91CF910C9497
:100730005C01DF91CF910895CF93DF93FC0123817A
:10074000222359F1EC0161E084810E948A0161E079
:100750008D810E948A018B81843011F08830B1F440
:1007600061E08E810E948A0161E08F810E948A018E
:100770008FA58F3F91F061E00E948A016EA581E014
:1007800068278FA5DF91CF910C945C01833011F025
:10079000863071F761E08E81E9CFDF91CF910895C6
:1007A000CF93DF93FC0123812223A9F0EC01019078
:1007B000F081E02D0480F581E02D60E009958FA5A2
:1007C0008F3F49F061E00E948A016EA58FA5DF91FD
:1007D000CF910C945C01DF91CF910895DC01ED91F4
:1007E000FC91248135814770552766277727415032
:1007F000510961097109473051056105710560F4BE
:10080000FA01EB5FFB4F0C948C1C0F0411041304D2
:100810001504170419041B0461E0F901099465E04B
:10082000FCCF64E0FACF66E0F8CF62E0F6CF6AE092
:10083000F4CF68E0F2CF69E0F0CFCF93DF93EC0123
:10084000CB01BA0126E030E040E050E00E946D1C90
:10085000623071058105910589F16CF461157105AE
:1008600081059105D1F06130710581059105F9F09F
:10087000DF91CF910895643071058105910561F193
:1008800024F1653071058105910591F7E881F981C1
:100890000480F581E02D66E006C0E881F9810480DE
:1008A000F581E02D64E0CE01DF91CF910994E881DC
:1008B000F9810480F581E02D65E0F5CFE881F981CB
:1008C0000480F581E02D61E0EECFE881F9810480BC
:1008D000F581E02D63E0E7CFE881F9810480F581BF
:1008E000E02D62E0E0CFDC01ED91FC910480F58128
:1008F000E02D437055276627772742305105610563
:10090000710571F0433051056105710559F04130B1
:1009100051056105710511F065E0099466E0FDCFB0
:100920006AE0FBCF69E0F9CFCF93DF93EC01CB0115
:10093000BA0123E030E040E050E00E946D1C6130DD
:1009400071058105910599F0623071058105910568
:10095000A9F0672B682B692BC1F4E881F981048029
:10096000F581E02D64E0CE01DF91CF910994E8811B
:10097000F9810480F581E02D61E0F5CFE881F9810E
:100980000480F581E02D62E0EECFDF91CF910895F4
:10099000DC01ED91FC910480F581E02D4370552739
:1009A00066277727423051056105710571F04330A4
:1009B00051056105710559F0413051056105710519
:1009C00011F062E0099463E0FDCF61E0FBCF60E0ED
:1009D000F9CFCF93DF93EC01E881F9810480F581B1
:1009E000E02D8A8160E0811162E0CE010995E88105
:1009F000F9810480F581E02D8A8161E0811163E055
:100A0000CE0109958CA59DA58230910538F0880FFF
:100A1000991F880F991F05970197F1F7E881F981D0
:100A20000480F581E02D8A8160E0811162E0CE01D1
:100A3000DF91CF910994CF93DF93EC0120E030E078
:100A4000A9016C897D898E899F890E94DE1E1816F6
:100A50002CF4E8A9F9A9DF91CF910994EAA9FBA99F
:100A6000FACFCF92DF92EF92FF920F931F93CF9323
:100A7000DF93DC011396CC91C43039F0C83059F1C2
:100A8000C33019F0C63049F1C2E08C010C5F1F4F32
:100A9000F12CE12CC62ED12CD1E0F8016481C601E5
:100AA0000E2C02C0959587950A94E2F780FD6D277C
:100AB0000F5F1F4F80810E945C01BFEFEB1AFB0AA2
:100AC000EC1658F3DF91CF911F910F91FF90EF90AB
:100AD000DF90CF900895C4E0D8CFC3E0D6CFDC013B
:100AE0001396EC911397E93008F038C0F0E0E55820
:100AF000FA4F0C948C1C84058A05900596059C057C
:100B0000AE05A205AE05A805ED91FC910084F18526
:100B1000E02D0994ED91FC910284F385E02DF9CF4D
:100B2000ED91FC910484F585E02DF3CFED91FC91DE
:100B30000684F785E02DEDCFED91FC910088F189D9
:100B4000E02DE7CFED91FC910288F389E02DE1CF14
:100B5000ED91FC910488F589E02DDBCF08954F924B
:100B60005F926F927F928F929F92AF92BF92CF923D
:100B7000DF92EF92FF920F931F93CF93DF93EC01DD
:100B8000C888D988EA88FB888C859D85AE85BF8515
:100B9000C81AD90AEA0AFB0A6C897D898E899F895D
:100BA0009B01AC010E94601B4B015C016C8D7D8D33
:100BB0008E8D9F8D9B01AC010E94AF1C9B01AC01EF
:100BC000C501B4010E948D1D0E94FF1DC114D104F6
:100BD000E104F10409F0B1C06230710581059105AD
:100BE0000CF0CBC01CA21DA21EA21FA21C8A1D8A33
:100BF0001E8A1F8A1CAA1DAA1EAA1FAADF91CF91B6
:100C00001F910F91FF90EF90DF90CF90BF90AF902A
:100C10009F908F907F906F905F904F9008951016E7
:100C2000110612061306B4F46C157D058E059F059A
:100C30001CF42A812111A1C09B01AC0188279927AE
:100C4000DC01821B930BA40BB50B8CAB9DABAEAB45
:100C5000BFAB93C0011511052105310509F48DC005
:100C60006C157D058E059F050CF087C08A81882351
:100C700009F483C030952095109501951F4F2F4F93
:100C80003F4F0CAB1DAB2EAB3FAB77C00115110531
:100C90002105310509F471C08824992454018C1868
:100CA0009D08AE08BF08681579058A059B050CF0FC
:100CB00064C08A81811161C0DDCFCCACDDACEEAC0B
:100CC000FFACA7019601C701B6010E94AF1C2B0122
:100CD0003C01C501B4010E94011B20E030E040E866
:100CE00050E40E94601B20E030E040E85FE30E9497
:100CF000AF1C9B01AC01C301B2010E948D1D9B0181
:100D0000AC01C701B6010E94AE1C3B016C01FE01A3
:100D1000E05CFF4FE080F180028113819701A80120
:100D20000E94DE1E181614F473018601C701D80153
:100D30008CAF9DAFAEAFBFAF3AC00CA91DA92EA915
:100D40003FA91C141D041E041F040CF468CF1016C8
:100D50001106120613060CF099CF002711279801EF
:100D60000C191D092E093F096017710782079307A7
:100D70000CF062CF2A8121115FCF8CA89DA8AEA86C
:100D8000BFA881149104A104B10409F096CF88ADE5
:100D900099ADAAADBBAD8CAF9DAFAEAFBFAF81E09B
:100DA0001C141D041E041F040CF080E08A833FEF16
:100DB000831A930AA30AB30A8CAA9DAAAEAABFAA51
:100DC000CCACDDACEEACFFACC701B6010E94061E98
:100DD0006CA37DA38EA39FA3A701960160E074E29C
:100DE00084E799E40E948D1D6C8B7D8B8E8B9F8B8D
:100DF0002A81211103CF90586C8B7D8B8E8B9F8B1A
:100E0000FDCECF92DF92EF92FF920F931F93CF937D
:100E1000DF93EC016A017B0120E030E0A901CB0106
:100E2000B6010E94FA1A87FF04C0F7FAF094F7F8A7
:100E3000F094A7019601688D798D8A8D9B8D0E9413
:100E4000FA1A882309F446C0C88ED98EEA8EFB8E22
:100E50008E01005C1F4FA701960160E074E284E7F9
:100E600099E40E948D1DF8016083718382839383CE
:100E70008CA99DA9AEA9BFA9181619061A061B06AA
:100E80004CF56C897D898E899F899B01AC010E94FC
:100E9000601B6B017C016C8D7D8D8E8D9F8D9B0108
:100EA000AC010E94AF1C9B01AC01C701B6010E94BE
:100EB0008D1D0E94FF1D6CAB7DAB8EAB9FABCE0139
:100EC000DF91CF911F910F91FF90EF90DF90CF9026
:100ED0000C94AF05DF91CF911F910F91FF90EF9090
:100EE000DF90CF900895CF92DF92EF92FF92CF9351
:100EF000DF93EC018CA19DA1AEA1BFA1892B8A2B10
:100F00008B2BB9F10E94C6016B017C0188A599A5C4
:100F1000AAA5BBA5B701A601481B590B6A0B7B0B01
:100F20008CA19DA1AEA1BFA1481759076A077B07F5
:100F300000F18C859D85AE85BF852A812223D1F164
:100F40000196A11DB11D8C879D87AE87BF874C85FB
:100F50005D856E857F85E881F9810680F781E02DCA
:100F6000CE010995C8A6D9A6EAA6FBA6CE010E9485
:100F7000AF0520E030E0A9016C897D898E899F89C9
:100F80000E94FA1A81111AC081E0C888D988EA88BB
:100F9000FB884C855D856E857F85C416D506E60683
:100FA000F70609F480E0DF91CF91FF90EF90DF909A
:100FB000CF9008950197A109B109C5CF81E0F3CF82
:100FC000CF93DF93EC01FC01E05BFF4F108288813F
:100FD0009981009739F0DC01ED91FC910190F0814D
:100FE000E02D09958A819B81009739F0DC01ED9114
:100FF000FC910190F081E02D09958C819D810097F5
:1010000049F0DC01ED91FC910190F081E02DDF9140
:10101000CF910994DF91CF910895FC01DB018CE31E
:1010200091E09183808312964D915D916D917C91B9
:101030001597428353836483758316964D915D9112
:101040006D917C91199746835783608771871A96B3
:101050008D919D910D90BC91A02D82879387A4873F
:10106000B5870895CF92DF92EF92FF920F931F936F
:10107000CF93DF938C01EB01FC0164817581868144
:1010800097810E94FF1A6B017C01F80160817181D8
:10109000828193810E94FF1A9B01AC01C701B601B6
:1010A0000E948D1D6B017C01BE01DD0F880B990B29
:1010B0000E94011B9B01AC01C701B6010E94601B8D
:1010C0000E94FF1DCB01DF91CF911F910F91FF90E7
:1010D000EF90DF90CF9008954F925F926F927F9242
:1010E0008F929F92AF92BF92CF92DF92EF92FF9238
:1010F000CF93DF93EC014A015B019BEDC92E9FE08A
:10110000D92E99ECE92E90E4F92E232B31F4C12C41
:10111000D12C84EBE82E83E4F82EFE01E45BFF4F34
:10112000A081B181349720813181428153810E9415
:10113000951C0E94FF1A2B013C01A7019601C501D5
:10114000B4010E948D1D9B01AC01C301B2010E943C
:10115000601B0E94FF1DFE01E25BFF4F80819181B9
:101160000E943208092E000CAA0BBB0B4C855D8532
:101170006E857F85840F951FA61FB71F48895989E3
:101180006A897B8984179507A607B707A9F0888B1A
:10119000998BAA8BBB8BCE01DF91CF91FF90EF9003
:1011A000DF90CF90BF90AF909F908F907F906F9087
:1011B0005F904F900C94AF05DF91CF91FF90EF902F
:1011C000DF90CF90BF90AF909F908F907F906F9067
:1011D0005F904F9008952F923F924F925F926F923F
:1011E0007F928F929F92AF92BF92CF92DF92EF92B7
:1011F000FF920F931F93CF93DF93CDB7DEB7619725
:101200000FB6F894DEBF0FBECDBF1C012A013B0113
:101210009BEDC92E9FE0D92E99ECE92E90E4F92E92
:10122000232B31F4C12CD12C84EBE82E83E4F82E4F
:10123000F101E25BFF4F208131813A8729873697A0
:1012400080819181A281B38189839A83AB83BC839E
:101250003496808191819C01092E000C440B550B22
:101260002B873C874D875E8749815A81489FB00113
:10127000499F700D589F700D112489859A850E9491
:101280003208988B8F87D1011C968D919D910D907E
:10129000BC91A02D8D839E83AF83B887812C912C28
:1012A00054010097A105B105D1F0BC01CD010E9408
:1012B000011B4B015C01EF85F889BF01FF0F880B13
:1012C000990B0E94011B9B01AC01C501B4010E9456
:1012D0008D1DA70196010E94601B4B015C01A301BB
:1012E0009201C501B4010E94AF1C6F87798B182F42
:1012F000092FF101E05BFF4F4080518062807380D5
:101300009B01482F592FB201C3010E94DE1E1816FF
:1013100024F04F86598A162D072DF101EC5AFF4F04
:1013200040805180628073802F853989412F502FF2
:10133000B201C3010E94FA1A87FF04C04F84598882
:10134000612E702E29813A814B815C816B857C8571
:101350008D859E850E943B1C0E94FF1A69837A83BB
:101360008B839C83A5019401B201C3010E94AE1C32
:10137000A70196010E948D1D9B01AC0169817A81B4
:101380008B819C810E94601B0E94FF1D89859A852C
:101390000E943208092E000CAA0BBB0B2D813E8146
:1013A0004F815885820F931FA41FB51FF1014089FB
:1013B00051896289738984179507A607B707F9F0E1
:1013C000808B918BA28BB38BC10161960FB6F89481
:1013D000DEBF0FBECDBFDF91CF911F910F91FF9068
:1013E000EF90DF90CF90BF90AF909F908F907F90C5
:1013F0006F905F904F903F902F900C94AF05619647
:101400000FB6F894DEBF0FBECDBFDF91CF911F9115
:101410000F91FF90EF90DF90CF90BF90AF909F9093
:101420008F907F906F905F904F903F902F90089596
:10143000CF92DF92EF92FF920F931F93CF93DF93A0
:10144000FC01C281D38188858B7F8887E881F981FF
:101450000190F081E02DCE010995182F88858695A1
:101460008170181799F00E9420026A837B838C8315
:101470009D83888592E089278887DF91CF911F918E
:101480000F91FF90EF90DF90CF9008950E9420027F
:10149000CA80DB80EC80FD80AB01BC014C195D098A
:1014A0006E097F098E819F81B0E0A0E0481759073F
:1014B0006A077B0710F3888581701817F1F20E9484
:1014C00020026A837B838C839D83888591E08927B2
:1014D000846088870E94200209851A852B853C85B7
:1014E000601B710B820B930B6D877E878F87988BA8
:1014F0000E94200269877A878B879C87BECFEF92F4
:10150000FF920F931F93CF93DF938C01F62EE42E5F
:1015100082E190E00E94411FEC011A821B821C8232
:101520001D828AE090E09F838E8318868AE091E096
:1015300099838883198AD8011396DC93CE931297E6
:101540006E2D8F2D0E948A01F98A1886E881F98113
:101550000190F081E02DCE010995882319F088854E
:10156000836088870E9420026A837B838C839D83AB
:10157000D8011296ED91FC9185E090E097838683E7
:10158000DF91CF911F910F91FF90EF9008954F92AF
:101590005F926F927F928F929F92AF92BF92CF9203
:1015A000DF92EF92FF920F931F93CF93DF93CDB70C
:1015B000DEB72E970FB6F894DEBF0FBECDBF8C01FD
:1015C00069017A018CE391E0F801918380832F8196
:1015D000388549855A85C701B6010E94601B2B01D9
:1015E0003C012B853C854D855E85C701B6010E9477
:1015F000601B4B015C01A70196016B817C818D8191
:101600009E810E94601BF8016283738384839583AB
:10161000468257826086718682869386A486B586C6
:10162000C8012E960FB6F894DEBF0FBECDBFDF9176
:10163000CF911F910F91FF90EF90DF90CF90BF90CF
:10164000AF909F908F907F906F905F904F90089594
:101650004F925F926F927F928F929F92AF92BF92C2
:10166000CF92DF92EF92FF92CF93DF93EC016A016A
:101670007B0120E030E0A901CB01B6010E94FA1AFB
:1016800087FF04C0F7FAF094F7F8F0948C8C9D8CE7
:10169000AE8CBF8CA7019601C501B4010E94FA1A55
:1016A000882309F449C06CA97DA98EA99FA90E942D
:1016B000011B2B013C01A7019601C501B4010E9449
:1016C0008D1D9B01AC01C301B2010E94601B0E94F1
:1016D000FF1D6CAB7DAB8EAB9FABA701960160E0AD
:1016E00070E080E090E40E948D1D0E94F11E26E5CE
:1016F0003EE04DE25FE30E94601B20E034E244E7FD
:1017000059E40E94601B68AF79AF8AAF9BAFCC8E63
:10171000DD8EEE8EFF8ECE01DF91CF91FF90EF90A8
:10172000DF90CF90BF90AF909F908F907F906F9001
:101730005F904F900C94AF05DF91CF91FF90EF90A9
:10174000DF90CF90BF90AF909F908F907F906F90E1
:101750005F904F900895CF93DF93EC0182E491E086
:101760009983888381E08B831C861D861E861F8655
:10177000188A198A1A8A1B8A1C8A1D8A1E8A1F8A3D
:1017800080E090E0A0E8BFE3888F998FAA8FBB8F9D
:101790001C8E1D8E1E8E1F8E88A399A3AAA3BBA389
:1017A0001CA21DA21EA21FA221E030E03DA72CA773
:1017B0002FEF2FA718A619A61AA61BA66C834D8378
:1017C00024E02E8325E02F831EA61CAA1DAA1EAA94
:1017D0001FAA18AE19AE1AAE1BAE1CAE1DAE1EAEC1
:1017E0001FAEFE01E05CFF4F80839183A283B38331
:1017F0001A82188619861A861B86CE010E949C03BF
:1018000040E050E060E87FE3CE010E94280BFE013B
:10181000EC5BFF4F138212828CE591E09983888301
:101820008CE791E091838083349688EC90E0A0E08F
:10183000B0E080839183A283B38388E090E00E942C
:10184000411F41E050E060E070E0FC0140835183C3
:10185000628373834483558366837783FE01E25BEF
:10186000FF4F91838083C45BDF4F80E190E09983D9
:101870008883DF91CF910895FB0101900020E9F763
:101880003197AF01461B570BDC01ED91FC910280B3
:10189000F381E02D09948F929F92AF92BF92EF92C5
:1018A000FF920F931F93CF93DF93CDB7DEB7A1972E
:1018B0000FB6F894DEBF0FBECDBF7C01FA01CB019D
:1018C00019A2223008F42AE08E010F5D1F4F822EEC
:1018D000912CB12CA12CBF01A50194010E944B1C9D
:1018E000F901CA016A300CF5605DD8016E938D0173
:1018F000232B242B252B79F790E080E0109721F003
:10190000BD01C7010E943C0CA1960FB6F894DEBF42
:101910000FBECDBFDF91CF911F910F91FF90EF9040
:10192000BF90AF909F908F900895695CDECFCF926B
:10193000DF92EF92FF92CF93DF936B017C016DE218
:1019400087EF92E00E94F502EC0144275527BA0187
:101950004C195D096E097F092AE087EF92E00E9429
:101960004B0C8C0F9D1FDF91CF91FF90EF90DF907C
:10197000CF900895AC01990F660B770B77FF04C0E9
:10198000CB01BA010C94970C2AE087EF92E00C94FB
:101990004B0CCF93DF93BC0187EF92E00E943C0C8D
:1019A000EC0164E971E087EF92E00E943C0C8C0F3F
:1019B0009D1FDF91CF910895CF93DF93AC01990FD5
:1019C000660B770B77FF10C0CB01BA010E94970C12
:1019D000EC0164E971E087EF92E00E943C0C8C0F0F
:1019E0009D1FDF91CF9108952AE087EF92E00E943A
:1019F0004B0CEECF2F923F924F925F926F927F925D
:101A00008F929F92AF92BF92CF92DF92EF92FF920E
:101A10001F93CF93DF93EC016A017B01722EAB0120
:101A20009601CB01B6010E94351F67E971E0811173
:101A300026C046015701E894B7F82FEF3FEF4FE774
:101A40005FE7C501B4010E94351F81110CC02FEF63
:101A50003FEF4FE75FE7C501B4010E94FA1A6BE957
:101A600071E0181664F02FEF3FEF4FE75FE4C70116
:101A7000B6010E94DE1E1816B4F46FE971E0CE01C3
:101A8000DF91CF911F91FF90EF90DF90CF90BF90AB
:101A9000AF909F908F907F906F905F904F903F900E
:101AA0002F900C943C0C2FEF3FEF4FE75FECC701FA
:101AB000B6010E94FA1A87FDE0CF20E030E0A901CC
:101AC000C701B6010E94FA1A312C212C87FF0DC0E4
:101AD000E881F9810190F081E02D6DE2CE01099558
:101AE0001C01F7FAF094F7F8F09410E060E070E071
:101AF00080E09FE3711641F020E030E040E251E4E5
:101B00000E948D1D1F5FF6CFA70196010E94AF1C9A
:101B10002B013C010E94061E4B015C012AE0BC0126
:101B2000A401CE010E944B0C7C01E20CF31C11239A
:101B3000E1F1C501B4010E94FF1A9B01AC01C30190
:101B4000B2010E94AE1C4B015C01E881F981019059
:101B5000F081E02D6EE2CE010995E80EF91E1150DC
:101B600020F120E030E040E251E4C501B4010E94E0
:101B7000601B2B013C010E94061E4B01B12CA12CC5
:101B80002AE0B501A401CE010E944B0CE80EF91E1B
:101B9000C501B4010E94FF1A9B01AC01C301B2014F
:101BA0000E94AE1C4B015C01DACFC701DF91CF91DF
:101BB0001F91FF90EF90DF90CF90BF90AF909F90DC
:101BC0008F907F906F905F904F903F902F900895EF
:101BD000CF93DF93AB01BC0122E087EF92E00E943C
:101BE000FA0CEC0164E971E087EF92E00E943C0C92
:101BF0008C0F9D1FDF91CF910895EF92FF920F936D
:101C00001F93CF93DF937C018B0163EA71E0C801DE
:101C10000E943C0CEC01F701428153816481758183
:101C200022E0C8010E94FA0CC80FD91F67EA71E0D0
:101C3000C8010E943C0CC80FD91FF701468157818B
:101C40006085718522E0C8010E94FA0CC80FD91F77
:101C50006CEA71E0C8010E943C0CC80FD91FF70163
:101C6000428553856485758522E0C8010E94FA0C7F
:101C70008C0F9D1FDF91CF911F910F91FF90EF90DF
:101C800008950E944721FC0124813581232B39F4DA
:101C900021E0FB018081882349F020E007C080819A
:101CA00091810E94602121E0892BB9F7822F08954C
:101CB0000F931F93CF93DF938C01EB01FC01808185
:101CC00091810097E1F06881798161157105A9F032
:101CD000428153812C813D814217530770F00E944D
:101CE00069218C819D81F801958384831D821C82EA
:101CF000DF91CF911F910F9108950E94DD1F888180
:101D00009981F801918380838A819B819383828367
:101D10008C819D8195838483198218821B821A820B
:101D2000E5CFCF93DF93EC0188819981009711F083
:101D30000E94DD1F198218821D821C821B821A825A
:101D4000DF91CF910895FC0180819181009711F07E
:101D50000C94DD1F08950F931F93CF93DF93EC0135
:101D600088819981009759F02A813B81261737078E
:101D700030F081E0DF91CF911F910F9108958B0199
:101D80006F5F7F4F0E946620009759F09983888388
:101D90001B830A832C813D81232B59F7FC01108280
:101DA000E8CF80E0E7CFEF92FF920F931F93CF939E
:101DB000DF93EC017B018A01BA010E94AB0E811115
:101DC0000BC0CE010E94910ECE01DF91CF911F91E9
:101DD0000F91FF90EF9008951D830C83B7018881C8
:101DE00099810E946921F0CFAF92BF92CF92DF928A
:101DF000EF92FF920F931F93CF93DF93EC016B0150
:101E00005A0179012417350720F48B2D5901E42E4E
:101E1000F82E198218821B821A821D821C8250E0C1
:101E200040E066E971E0CE010E94D30ED60114961F
:101E30000D911C91A016B10628F5E016F10608F4E4
:101E40008701D601ED91FC911197E00FF11FF08011
:101E500010826D917C916A0D7B1D61157105F1F009
:101E6000FB0101900020E9F73197AF01461B570BAA
:101E7000CE010E94D30EF60180819181080F191FB7
:101E8000D801FC92CE01DF91CF911F910F91FF906D
:101E9000EF90DF90CF90BF90AF900895CE010E9459
:101EA000910EE9CFCF93DF93EC01FB0186179707E3
:101EB00049F0608171816115710541F0448155815E
:101EC0000E94D30ECE01DF91CF9108950E94910E12
:101ED000F9CF4F925F927F928F929F92AF92BF9273
:101EE000CF92DF92EF92FF920F931F93CF93DF93E6
:101EF00000D000D000D0CDB7DEB78C015B016A0105
:101F0000FA011182108286E0782EF8018481958191
:101F1000892BB9F0F60180809180F3E18F1691044E
:101F200034F1C4010196F6019183808326E0289D57
:101F3000C001299D900D1124B8018A0D9B1D0E949E
:101F4000520F26960FB6F894DEBF0FBECDBFDF91BD
:101F5000CF911F910F91FF90EF90DF90CF90BF90A6
:101F6000AF909F908F907F905F904F900895F80171
:101F70004080518060E270E0C2010E9455210097CC
:101F800081F27C01E418F508FFEFEF16FF0649F235
:101F9000970150E040E0B801CE0101960E94F40E96
:101FA000F60120813181C901019691838083729E5F
:101FB000C001739E900D1124BE016F5F7F4F8A0D8B
:101FC0009B1D0E94580ECE0101960E94A30EF8019F
:101FD00024813581A7014F5F5F4FB801CE01019683
:101FE0000E94F40EBE016F5F7F4FC8010E94580E21
:101FF000CE0101960E94A30E88CF4F925F926F92FE
:102000007F928F929F92AF92BF92CF92DF92EF9288
:10201000FF920F931F93CF93DF93CDB7DEB7C656D2
:10202000D1090FB6F894DEBF0FBECDBF8C017B0186
:10203000FC01E05BFF4F8081811108C081EB91E0E2
:102040000E94C90C89EC91E00E94C90CB701CE0135
:102050008B960E940D088CE391E09E8F8D8F1F8ED2
:1020600018A219A21AA21BA21CA21DA21EA2F8014C
:1020700081859285A385B4858FA398A7A9A7BAA7C0
:10208000BE01635E7F4FCE0101960E940D084DA4F4
:102090005EA46FA478A88B809C80AD80BE8089A947
:1020A0009AA9ABA9BCA92B968CAF9DAFAEAFBFAF21
:1020B0002B97CF80D884E984FA848DA99EA9AFA9F3
:1020C000B8AD2F968CAF9DAFAEAFBFAF2F978B85BE
:1020D0009C85AD85BE8563968CAF9DAFAEAFBFAF1F
:1020E0006397A5019401C301B2010E94601B9B018B
:1020F000AC01C301B2010E94AE1CA50194010E9473
:10210000AE1C2B962CAD3DAD4EAD5FAD2B970E9416
:10211000AF1C4B015C01A70196012B966CAD7DAD08
:102120008EAD9FAD2B970E94601B9B01AC01C5013A
:10213000B4010E94AE1CA70196010E94AE1C2F960E
:102140002CAD3DAD4EAD5FAD2F970E94AF1C6B0126
:102150007C0163962CAD3DAD4EAD5FAD63972F9680
:102160006CAD7DAD8EAD9FAD2F970E94601B9B0126
:10217000AC01C701B6010E94AE1C63962CAD3DAD0B
:102180004EAD5FAD63970E94AE1C0E94F11E4B01E5
:102190005C01D801D5962D913D914D915C91D897D8
:1021A0005B966D917D918D919C915E970E94AF1C85
:1021B0006B017C01A50194010E94FA1ABE0187FD02
:1021C00011C0F801E45BFF4FC080D180E280F38052
:1021D000A5019401C701B6010E94DE1EBE011816BA
:1021E0000CF0DBC1635E7F4FCE0101960E940D08AB
:1021F000BE01655D7F4FCE010F960E940D08A701BD
:102200009601BE016F5F7F4FCE01C9960E94C70A3B
:10221000BE01675C7F4FCE0101960E940D08F80158
:10222000438C548C658C768C85A996A9A7A9B0ADF2
:102230002B968CAF9DAFAEAFBFAF2B978B819C81A0
:10224000AD81BE812F968CAF9DAFAEAFBFAF2F9744
:102250008F819885A985BA8563968CAF9DAFAEAF07
:10226000BFAF63972F962CAD3DAD4EAD5FAD2F97B1
:10227000CA01B9010E94601B6B017C0163962CAD01
:102280003DAD4EAD5FAD6397CA01B9010E94601BC1
:102290009B01AC01C701B6010E94AF1C0E94F11E58
:1022A00067966CAF7DAF8EAF9FAF6797D8011996D9
:1022B0002D913D914D915C911C976B857C858D8511
:1022C0009E850E94AE1C6B966CAF7DAF8EAF9FAFAC
:1022D0006B9767962CAD3DAD4EAD5FAD6797CA016C
:1022E000B9010E94601B6B017C016B962CAD3DAD6A
:1022F0004EAD5FAD6B97CA01B9010E94601B9B0197
:10230000AC01C701B6010E94AF1C0E94F11E4B0137
:102310005C012B962CAD3DAD4EAD5FAD2B97CA0148
:10232000B9010E94601B6F966CAF7DAF8EAF9FAFFF
:102330006F97A3019201C301B2010E94601BA39693
:102340006CAF7DAF8EAF9FAFA397A5019401C50180
:10235000B4010E94601B6B017C0120E030E040E092
:1023600050ECC301B2010E94601BA7966CAF7DAF19
:102370008EAF9FAFA797A3962CAD3DAD4EAD5FAD91
:10238000A3976F966CAD7DAD8EAD9FAD6F970E949C
:10239000AE1CA70196010E94AE1C2B013C01A79622
:1023A0002CAD3DAD4EAD5FADA797C501B4010E9408
:1023B000601B9B01AC01C301B2010E948D1D0E94F4
:1023C0009D1C2B013C0167962CAD3DAD4EAD5FAD24
:1023D00067976B966CAD7DAD8EAD9FAD6B970E9490
:1023E0002E1D67966CAF7DAF8EAF9FAF6797A3969C
:1023F0002CAD3DAD4EAD5FADA397C701B6010E94B8
:10240000AE1C6F962CAD3DAD4EAD5FAD6F970E948B
:10241000AE1C6B017C01A7962CAD3DAD4EAD5FAD02
:10242000A7972B966CAD7DAD8EAD9FAD2B970E947F
:10243000601B9B01AC01C701B6010E948D1D0E946B
:102440009D1C4B015C012F962CAD3DAD4EAD5FAD9B
:102450002F9763966CAD7DAD8EAD9FAD63970E9457
:102460002E1D20E030E044E353E40E94601B2BED7E
:102470003FE049E450E40E948D1D6B017C016796AA
:102480002CAD3DAD4EAD5FAD6797C301B2010E946B
:10249000AF1C20E030E044E353E40E94601B2BEDCE
:1024A0003FE049E450E40E948D1D2B013C01A50151
:1024B00094016BED7FE089E490E40E94AE1C20E083
:1024C00030E044E353E40E94601B2BED3FE049E41D
:1024D00050E40E948D1D4B015C0166ED71E087EFB9
:1024E00092E00E943C0CC701B6010E94E80D66EE26
:1024F00071E087EF92E00E943C0CC301B2010E94A0
:10250000E80D6BEF71E087EF92E00E943C0CC50193
:10251000B4010E94E80DF80180819181DC01ED9108
:10252000FC91008CF18DE02D30E020E0B701A60198
:102530000995F80182819381DC01ED91FC91008C79
:10254000F18DE02D30E020E0B301A2010995F80102
:1025500084819581DC01ED91FC91008CF18DE02D61
:1025600030E020E0B501A4010995CA59DF4F0FB64C
:10257000F894DEBF0FBECDBFDF91CF911F910F91B9
:10258000FF90EF90DF90CF90BF90AF909F908F9093
:102590007F906F905F904F900895655D7F4FCE0163
:1025A000C9960E940D0834CE2F923F924F925F92AF
:1025B0006F927F928F929F92AF92BF92CF92DF9253
:1025C000EF92FF920F931F93CF93DF93EC01CB0118
:1025D000BA0189013BEDC32E3FE0D32E39ECE32E47
:1025E00030E4F32E0115110531F4C12CD12C24EB6C
:1025F000E22E23E4F22EA70196010E94401E4B0119
:102600005C01FE01E45BFF4F808191813497208162
:102610003181289FB001299F700D389F700D1124C2
:102620003696808191810E9432081C016C857D85DF
:102630008E859F8520E030E0A90161157105810537
:102640009105B1F00E94011B2B013C01B101330C3B
:10265000880B990B0E94011B9B01AC01C301B201C5
:102660000E948D1DA70196010E94601B9B01AC0179
:10267000C501B4010E94AE1CAB01BC01E881F98127
:102680000688F789E02D9801CE01DF91CF911F9147
:102690000F91FF90EF90DF90CF90BF90AF909F9001
:1026A0008F907F906F905F904F903F902F90099404
:1026B0001F920F920FB60F9211242F933F938F9377
:1026C0009F93AF93BF938091EF029091F002A091FE
:1026D000F102B091F2023091EE0223E0230F2D3788
:1026E00058F50196A11DB11D2093EE028093EF02D3
:1026F0009093F002A093F102B093F2028091F30262
:102700009091F402A091F502B091F6020196A11DFC
:10271000B11D8093F3029093F402A093F502B0935D
:10272000F602BF91AF919F918F913F912F910F90A2
:102730000FBE0F901F90189526E8230F0296A11D3B
:10274000B11DD2CF1F920F920FB60F9211240BB66C
:102750000F922F933F934F935F936F937F938F933A
:102760009F93AF93BF93EF93FF9387EF92E00E9405
:10277000D302FF91EF91BF91AF919F918F917F9184
:102780006F915F914F913F912F910F900BBE0F90E2
:102790000FBE0F901F9018951F920F920FB60F92B9
:1027A00011240BB60F922F938F939F93EF93FF9368
:1027B000E0910703F09108038081E0910D03F0910F
:1027C0000E0382FD1DC09081809110038F5F8F7377
:1027D00020911103821741F0E0911003F0E0E950DD
:1027E000FD4F958F80931003FF91EF919F918F91F3
:1027F0002F910F900BBE0F900FBE0F901F9018954A
:102800008081F2CF0895E7EFF2E01382128288EE22
:1028100093E0A0E0B0E084839583A683B78386E845
:1028200091E09183808385EC90E09587848784ECA8
:1028300090E09787868780EC90E0918B808B81EC8D
:1028400090E0938B828B82EC90E0958B848B86EC6E
:1028500090E0978B868B118E128E138E148EE4E986
:10286000F3E01786108A118A11A212A213A213AEE6
:1028700014AE15AE0895CF93DF93CDB7DEB7CE5E1D
:10288000D1090FB6F894DEBF0FBECDBF789484B5E2
:10289000826084BD84B5816084BD85B5826085BD5C
:1028A00085B5816085BD80916E00816080936E00EA
:1028B00010928100809181008260809381008091DC
:1028C000810081608093810080918000816080938D
:1028D00080008091B10084608093B1008091B0004D
:1028E00081608093B000809191008260809391001C
:1028F000809191008160809391008091900081602F
:102900008093900080917A00846080937A00809117
:102910007A00826080937A0080917A00816080934F
:102920007A0080917A00806880937A001092C100CA
:10293000E0910703F091080312E01083E091030394
:10294000F09104031082E0910503F091060380E109
:10295000808310920F03E0910B03F0910C0386E04B
:102960008083E0910903F0910A0380818061808374
:10297000E0910903F0910A03808188608083E091EF
:102980000903F0910A03808180688083E091090344
:10299000F0910A0380818F7D80838AE090E0A0E03F
:1029A000B0E08093FB029093FC02A093FD02B093F1
:1029B000FE0280E192E00E94C90C80E090E0A0E776
:1029C000B1E48093DA039093DB03A093DC03B0932C
:1029D000DD0386E18093940387E1809395038EE085
:1029E0008093960340E050E060E371E440939703E6
:1029F000509398036093990370939A0340E050E0DA
:102A00006AEF75E440939B0350939C0360939D038E
:102A100070939E0340E050E06AEF74E440939F039C
:102A20005093A0036093A1037093A203DD24D39479
:102A3000D092A5039FE09093A60395E19093A703FE
:102A40008093A80380E090E0A0EFB1E48093A90315
:102A50009093AA03A093AB03B093AC031092B80376
:102A60001092B9031092BA031092BB0320E030E039
:102A700044EB52E42093BC033093BD034093BE0368
:102A80005093BF0380E090E0AAE7B5E48093AD03E4
:102A90009093AE03A093AF03B093B00380E090E0B7
:102AA000AAE7B4E48093B1039093B203A093B30375
:102AB000B093B403D092B70323E02093C0031093E4
:102AC000C1032AE12093C20340E050E068EC71E4C6
:102AD0004093C3035093C4036093C5037093C6032C
:102AE00020E030E046E153EC2093D2033093D3034F
:102AF0004093D4035093D50320E030E046E153E403
:102B00002093D6033093D7034093D8035093D9032F
:102B100040E050E86BE375E44093C7035093C8036B
:102B20006093C9037093CA038093CB039093CC0343
:102B3000A093CD03B093CE03D092D103D092CF0314
:102B400081E590E00E94411F8C019093ED028093FB
:102B5000EC021E0139E7230E311C8AE4E4E9F3E0BC
:102B6000D10101900D928A95E1F7B090A303A09056
:102B7000A4034091B503C251DF4F4883CE5ED040DD
:102B8000C090B6035091D003C351DF4F5883CD5E40
:102B9000D0408AE4F101D801169601900D928A95F1
:102BA000E1F780E590E00E94411F7C0147E166E18A
:102BB0000E94AB0BD801ED92FC92F701A086B18682
:102BC000D6A6E25BFF4F0190F081E02D84E1882ED4
:102BD000912CA12CB12C80829182A282B3829BE5A0
:102BE000492E512C612C712C448255826682778249
:102BF000F701E45BFF4F20E130E03183208340E0C8
:102C000050E06AEF75E4C7010E94010740E050E020
:102C10006AEF74E4D8018D919C910E94280B6EE0BC
:102C2000F801808191810E94870388E590E00E94ED
:102C3000411F7C0145E16FE00E94AB0BE2E1F1E056
:102C4000D701ED93FC93F701EC5BFF4F22E331E0FA
:102C500031832083D8011396FC92EE921297F701EC
:102C6000C086C251DF4F2881CE5ED0402187D6A6D4
:102C7000E25BFF4F0190F081E02D80829182A28281
:102C8000B3824482558266827782F701E45BFF4F0C
:102C900040E150E05183408340E050E06AE775E452
:102CA000C7010E94010740E050E06AE774E4D801E0
:102CB00012968D919C910E94280BF801828193813C
:102CC000FC01E05BFF4F20E030E044EB52E4208366
:102CD000318342835383349610821182128213828D
:102CE0006EE00E94870388E590E00E94411F7C010E
:102CF00042E063E00E94AB0BE2E1F1E0D701ED932B
:102D0000FC93F701EC5BFF4F22E331E0318320833A
:102D1000D8011596FC92EE921497C351DF4F28818B
:102D2000CD5ED040F7012087D186D6A6E25BFF4F6B
:102D30000190F081E02D80829182A282B382448250
:102D4000558266827782F701E45BFF4F40E150E0F5
:102D50005183408340E050E86BE375E4C7010E9473
:102D6000010740E050E06AE774E4D80114968D91C1
:102D70009C910E94280BF80184819581FC01E05B05
:102D8000FF4F20E030E046E153E42083318342836B
:102D90005383349620E030E046E153EC20833183C6
:102DA000428353836AE10E948703C8010E94E007BF
:102DB0002CE3C22E21E0D22E87EF92E00E94BD02CA
:102DC000892B09F432C1CB51DF4F19821882C55EBD
:102DD000D040C951DF4F19821882C75ED040C75119
:102DE000DF4F19821882C95ED04050E040E066E9AA
:102DF00071E0CE018B519F4F0E94D30E0E947D0245
:102E0000C751DF4F48815981C95ED04097FD2AC024
:102E10008D30910539F189831A828A010F5F1F4F26
:102E2000B801CE018B519F4F0E94AB0E882331F326
:102E3000CB51DF4F28813981C55ED040C751DF4F6C
:102E400088819981C95ED040BE016F5F7F4F820F3C
:102E5000931F0E946921C751DF4F19830883C95E00
:102E6000D040CCCFCB51DF4F68817981C55ED04057
:102E700087EF92E00E942D0264E971E087EF92E013
:102E80000E943C0CC152DF4F19821882CF5DD040A6
:102E9000CF51DF4F19821882C15ED040CD51DF4F34
:102EA00019821882C35ED040BE016B517F4FCE01A4
:102EB00081529F4F0E94520FC551DF4F19821882D5
:102EC000CB5ED0408E010F5F1F4F7801D801119665
:102ED0001C921E9213961C921E92129715961C928B
:102EE0001E92149750E040E066E971E0C8010E942C
:102EF000D30E0A5F1F4F0215130541F7CD53DF4F65
:102F000019821882C35CD040CB53DF4F19821882DC
:102F1000C55CD040C953DF4F19821882C75CD040CE
:102F2000BE0161527F4FCE018D539F4F0E94520FC1
:102F3000AE0145515F4FB701CE018D539F4F0E94A7
:102F4000690FCE018D539F4F0E94A30EC551DF4FD5
:102F500008811981CB5ED04082E292E01016110602
:102F60000CF086C18D819E81892B09F473C1E981A2
:102F7000FA81309709F46EC18081853609F067C106
:102F800087E392E00E94C90C0091EC021091ED02DF
:102F9000F801E05BFF4F81E08083F801808191813F
:102FA000009739F0DC01ED91FC910280F381E02D76
:102FB0000995F80182819381009739F0DC01ED9148
:102FC000FC910280F381E02D0995F80184819581BF
:102FD000009739F0DC01ED91FC910280F381E02D46
:102FE00009950E94EB018EE00E9433010E94DC0CE7
:102FF0008EE00E9433010E94DC0C8AE10E943301C2
:103000000E94DC0C810106501109C8010E94A30E28
:10301000E016F106C1F7CE0181529F4F0E94A30E28
:10302000CE018B519F4F0E94A30E0091EC02109194
:10303000ED02F801808191810E947307D8011296F8
:103040008D919C910E947307F801848195810E9463
:1030500073070E946203B0CE85E492E00E94C90C1F
:103060008091EC029091ED020E94E007BACF6BE7ED
:1030700072E0CE0107960E94430E882381F18D8570
:103080009E85812C912C5401009719F00E943F19C4
:103090004B016DE772E087EF92E00E943C0CC401A7
:1030A0000E94BA0C82E992E00E94C90CE091EC0205
:1030B000F091ED0202811381B401990C880B990BF8
:1030C0000E94011BAB01BC01D801ED91FC91008C69
:1030D000F18DE02D30E020E0C801099593CF6BE938
:1030E00072E0CE0107960E94430E8823F1F08D8591
:1030F0009E85812C912C5401009719F00E943F1954
:103100004B016DE972E087EF92E00E943C0CC40134
:103110000E94BA0C82E992E00E94C90CE091EC0294
:10312000F091ED0200811181C7CF6DEA72E0CE010E
:1031300007960E94430E882309F464CF8D859E85EF
:10314000812C912C5401009719F00E943F194B01DA
:103150006FEA72E087EF92E00E943C0CC4010E948B
:10316000BA0C82E992E00E94C90CE091EC02F09165
:10317000ED0204811581A0CF64EC72E0C7010E94CA
:10318000430E882309F43ECF86EC92E0033011050C
:103190000CF46EC0CF52DF4FD982C882C15DD040DF
:1031A0008F819885009709F446C00E943B19CD5243
:1031B000DF4F688379838A839B83C35DD0408D858D
:1031C0009E850097E1F10E943B19C952DF4F688349
:1031D00079838A839B83C75DD0408B899C890097C4
:1031E00091F10E943B19C552DF4F688379838A832E
:1031F0009B83CB5DD04067EF72E0CE018F529F4F33
:103200000E94FD0D64E971E087EF92E00E943C0CA2
:103210000091EC021091ED02BE016F527F4FCE0182
:103220008D539F4F0E940D08BE016D537F4FC80103
:103230000E94FD0FE7CE60E070E0CB01B8CF60E008
:1032400070E0CB01C2CF60E070E0CB01CCCF843620
:1032500009F402CF64E572E0C7010E94430E88239F
:1032600009F48ACF033011050CF001CF86E592E016
:103270000E94C90CC7CE662777270C947B191F9331
:10328000FC0199278827BC01E89411911032E9F3D9
:10329000193010F01E30C8F31B3251F01D3249F4C2
:1032A000689406C00E946619610F711D811D911DF1
:1032B000119110531A30B0F33EF4909580957095AB
:1032C00061957F4F8F4F9F4F1F910895592F482F22
:1032D000372F262F660F771F881F991F660F771FBE
:1032E000881F991F620F731F841F951F660F771F1A
:1032F000881F991F08958F929F92AF92BF92CF928D
:10330000DF92EF92FF920F931F93CF93DF935C01B5
:103310007B016115710519F0DB018D939C9385018B
:103320000F5F1F4FF501D0818D2F90E00E94D91AB9
:103330006C01892BB9F5DD32B9F50F5F1F4FD5014F
:103340001196DC91C1E05801F1E0AF1AB10843E0F9
:1033500050E06AEE70E0C5010E94E21A892B69F51F
:10336000680182E0C80ED11C45E050E065EE70E0D7
:10337000C6010E94E21A892B21F4680197E0C90E68
:10338000D11CE114F10419F0D701CD92DC9260E078
:1033900070E080E89FEFC111FFC060E070E080E85E
:1033A0009FE7FAC05801BBCFDB3229F485010E5FDD
:1033B0001F4FF501D181C0E0C6CF43E050E062EE7F
:1033C00070E0C5010E94E21A892BE9F0F80110E0D3
:1033D00000E020E030E0A9015F01B0ED8B2E8D0E02
:1033E00089E08815C8F19C2E689491F88C2F88701C
:1033F000C2FF16C0811102C00F5F1F4F3196D50169
:10340000DC91C92DE9CFE114F10429F00E5F1F4FC3
:10341000F7011183008360E070E080EC9FE7BCC09F
:10342000882311F001501109A5E0B0E00E94211C91
:103430009B01AC01220F331F441F551F280D311D66
:10344000411D511D283999E93907490799E1590763
:10345000A8F2C6609C2ED2CFAEEF8A1206C0C3FD82
:103460003CC09C2E689493F8C9CFDF7DD534A9F574
:1034700080818D3239F4C061DF011296818162E072
:1034800070E006C0DF018B32C1F3119661E070E09D
:1034900080535D01A61AB70A8A30F8F4E0E8CE1628
:1034A000ECE0DE065CF4B601660F771F660F771F4F
:1034B000C60ED71ECC0CDD1CC80ED11C5D01FFEF63
:1034C000AF1ABF0A8C9180538A30A8F1C4FF03C0A1
:1034D000D194C194D1080C0D1D1DC1FF09C0E11488
:1034E000F10431F081E0A81AB108D701AD92BC9285
:1034F000CA01B9010E94FF1AC370C33009F4905881
:103500004B015C0120E030E0A9010E94FA1A8823F7
:1035100009F440C0C9E1D1E017FF05C0119501953C
:103520001109C1E0D1E06E01B8E1CB1AD10880E207
:10353000E82EF12C0FC0D501B1CFFE0125913591B8
:10354000459154910E191F09C501B4010E94601BD9
:103550004B015C01D501C4010E151F0574F72497BA
:10356000F594E794CC16DD06A9F78A2F880F8B2FE8
:10357000881F8F3F49F020E030E0A901C501B40168
:103580000E94FA1A811106C082E290E09093DF0354
:103590008093DE03C501B401DF91CF911F910F919C
:1035A000FF90EF90DF90CF90BF90AF909F908F9063
:1035B000089591110C94CD1B803219F089508550DB
:1035C000C8F70895FB01DC014150504088F08D910F
:1035D00081341CF08B350CF4805E659161341CF0F5
:1035E0006B350CF4605E861B611171F3990B0895C5
:1035F000881BFCCF0E943C1B08F481E00895E894EE
:1036000009C097FB3EF490958095709561957F4F2A
:103610008F4F9F4F9923A9F0F92F96E9BB279395D8
:10362000F695879577956795B795F111F8CFFAF4E8
:10363000BB0F11F460FF1BC06F5F7F4F8F4F9F4F19
:1036400016C0882311F096E911C0772321F09EE877
:10365000872F762F05C0662371F096E8862F70E0DD
:1036600060E02AF09A95660F771F881FDAF7880FB7
:103670009695879597F90895990F0008550FAA0B0D
:10368000E0E8FEEF16161706E807F907C0F0121675
:103690001306E407F50798F0621B730B840B950B78
:1036A00039F40A2661F0232B242B252B21F40895CD
:1036B0000A2609F4A140A6958FEF811D811D08956A
:1036C0000E94731B0C94E71B0E94D91B38F00E94C8
:1036D000E01B20F0952311F00C94D01B0C94D61B0A
:1036E00011240C941B1C0E94F81B70F3959FC1F3CE
:1036F000950F50E0551F629FF001729FBB27F00DA0
:10370000B11D639FAA27F00DB11DAA1F649F6627F4
:10371000B00DA11D661F829F2227B00DA11D621F43
:10372000739FB00DA11D621F839FA00D611D221FFD
:10373000749F3327A00D611D231F849F600D211DE1
:10374000822F762F6A2F11249F5750409AF0F1F064
:1037500088234AF0EE0FFF1FBB1F661F771F881FCD
:1037600091505040A9F79E3F510580F00C94D01B1A
:103770000C941B1C5F3FE4F3983ED4F38695779539
:103780006795B795F795E7959F5FC1F7FE2B880F73
:10379000911D9695879597F90895992788270895FB
:1037A00097F99F6780E870E060E008959FEF80ECF4
:1037B000089500240A941616170618060906089597
:1037C00000240A9412161306140605060895092EFD
:1037D0000394000C11F4882352F0BB0F40F4BF2B6C
:1037E00011F460FF04C06F5F7F4F8F4F9F4F0895AC
:1037F00057FD9058440F551F59F05F3F71F04795A2
:10380000880F97FB991F61F09F3F79F08795089586
:10381000121613061406551FF2CF4695F1DF08C0A5
:10382000161617061806991FF1CF869571056105C2
:1038300008940895E894BB2766277727CB0197F96A
:1038400008950E942C1CA59F900DB49F900DA49FDD
:10385000800D911D11240895A29FB001B39FC00156
:10386000A39F700D811D1124911DB29F700D811DAC
:103870001124911D0895DB018F939F930E94211CB9
:10388000BF91AF91A29F800D911DA39F900DB29FFC
:10389000900D11240895A1E21A2EAA1BBB1BFD0155
:1038A0000DC0AA1FBB1FEE1FFF1FA217B307E4071F
:1038B000F50720F0A21BB30BE40BF50B661F771F77
:1038C000881F991F1A9469F7609570958095909557
:1038D0009B01AC01BD01CF010895052E97FB1EF49D
:1038E00000940E94841C57FD07D00E944B1C07FCCB
:1038F00003D04EF40C94841C50954095309521953E
:103900003F4F4F4F5F4F089590958095709561950B
:103910007F4F8F4F9F4F0895EE0FFF1F0024001C15
:103920000BBE0790F691E02D0994B7FF0C94211C73
:103930000E94211C821B930B08959F939F770E94E6
:10394000891E0F90002042F49058A2EA2AED3FE031
:1039500049E450E40E94C61C0C94E71B5058BB2756
:10396000AA270E94C61C0C94E71B0E94D91B38F0A2
:103970000E94E01B20F039F49F3F19F426F40C94C8
:10398000D61B0EF4E095E7FB0C94D01BE92F0E94A8
:10399000F81B58F3BA17620773078407950720F0DE
:1039A00079F4A6F50C941A1C0EF4E0950B2EBA2FA0
:1039B000A02D0B01B90190010C01CA01A001112435
:1039C000FF27591B99F0593F50F4503E68F11A16E1
:1039D000F040A22F232F342F4427585FF3CF469572
:1039E00037952795A795F0405395C9F77EF41F1694
:1039F000BA0B620B730B840BBAF09150A1F0FF0F5E
:103A0000BB1F661F771F881FC2F70EC0BA0F621F49
:103A1000731F841F48F4879577956795B795F79539
:103A20009E3F08F0B0CF9395880F08F09927EE0FCE
:103A30009795879508950E94D91B60F080E891E0E2
:103A400009F49EEF0E94E01B28F040E851E071F479
:103A50005EEF0CC00C94D61B0C941A1CE92FE07876
:103A60000E94F81B40F3092E052AB1F326173707E9
:103A70004807590738F00E2E07F8E02569F0E025D1
:103A8000E0640AC0EF6307F8009407FADB01B901AC
:103A90009D01DC01CA01AD01EF930E94A41D0E94AB
:103AA000E71B0E945E1D5F91552339F02BED3FE02F
:103AB00049E450FD49EC0C94AF1C0895DF93DD27D9
:103AC000B92FBF7740E85FE31616170648075B0774
:103AD00018F4D92F0E94E31E9F938F937F936F93C7
:103AE0000E94311FECE8F0E00E94B71E0E94E71B25
:103AF0002F913F914F915F910E94731BDD2351F0F5
:103B00009058A2EA2AED3FE049EC5FE3D0785D27C8
:103B10000E94C61CDF910C94E71B0E94A11D0C940F
:103B2000E71B0E94E01B58F00E94D91B40F029F4CB
:103B30005F3F29F00C94D01B51110C941B1C0C946A
:103B4000D61B0E94F81B68F39923B1F3552391F318
:103B5000951B550BBB27AA2762177307840738F0FC
:103B60009F5F5F4F220F331F441FAA1FA9F335D059
:103B70000E2E3AF0E0E832D091505040E695001C0D
:103B8000CAF72BD0FE2F29D0660F771F881FBB1FC7
:103B9000261737074807AB07B0E809F0BB0B802DA5
:103BA000BF01FF2793585F4F3AF09E3F510578F0D1
:103BB0000C94D01B0C941B1C5F3FE4F3983ED4F391
:103BC000869577956795B795F7959F5FC9F7880FA5
:103BD000911D9695879597F90895E1E0660F771FF7
:103BE000881FBB1F621773078407BA0720F0621B88
:103BF000730B840BBA0BEE1F88F7E09508950E94B3
:103C0000061E6894B1110C941B1C08950E94001CA0
:103C100088F09F5798F0B92F9927B751B0F0E1F08D
:103C2000660F771F881F991F1AF0BA95C9F714C03D
:103C3000B13091F00E941A1CB1E008950C941A1C46
:103C4000672F782F8827B85F39F0B93FCCF3869576
:103C500077956795B395D9F73EF4909580957095D3
:103C600061957F4F8F4F9F4F08950E94D91B20F081
:103C700019F00E94E01B50F40C94D61B0C941B1CF2
:103C8000E92F0E94F81B88F35523B1F3E7FB621775
:103C9000730784079507A8F189F3E92FFF27882385
:103CA0002AF03197660F771F881FDAF7952F55276F
:103CB000442332F091505040220F331F441FD2F75B
:103CC000BB27E91BF50B621B730B840BB109B1F227
:103CD00022F4620F731F841FB11D31972AF0660F03
:103CE000771F881FBB1FEFCF9150504062F041F00B
:103CF000882332F0660F771F881F91505040C1F71C
:103D000093950C94A91E8695779567959F5FD9F733
:103D1000F7CFDF93CF931F930F938B01EC01E9EB68
:103D2000F0E00E94B71E0E94E71B9801AE018B01D4
:103D3000EC0160E070E080E89FE30E94AE1C0E940E
:103D4000F11E9801AE010F911F91CF91DF910C945C
:103D5000731B9F3F31F0915020F4879577956795BD
:103D6000B795880F911D9695879597F90895DF93DC
:103D7000CF931F930F93FF92EF92DF927B018C0101
:103D8000689406C0DA2EEF010E94731BFE01E894CE
:103D9000A5912591359145915591A6F3EF010E948A
:103DA000C61CFE019701A801DA9469F7DF90EF9035
:103DB000FF900F911F91CF91DF9108950E943C1BBE
:103DC00008F48FEF08959B01AC0160E070E080E89B
:103DD0009FE30C948D1D19F416F40C94D61B0C94CF
:103DE000A91E0E94001CB8F39923C9F3B6F39F578C
:103DF000550B87FF0E943A1F0024A0E640EA90017D
:103E000080585695979528F4805C660F771F881F19
:103E100020F026173707480730F4621B730B840B1A
:103E2000202931294A2BA69517940794202531255E
:103E30004A2758F7660F771F881F20F02617370785
:103E4000480730F4620B730B840B200D311D411DAC
:103E5000A09581F7B901842F9158880F9695879581
:103E600008959B01AC010C94601B0E943C1B880BC5
:103E7000990B089591505040660F771F881FD2F715
:103E800008950F931F93CF93DF938230910510F421
:103E900082E090E0E091E203F091E30330E020E083
:103EA000B0E0A0E0309799F42115310509F44AC03B
:103EB000281B390B24303105D8F58A819B81611587
:103EC000710589F1FB0193838283FE0111C040815A
:103ED00051810281138148175907E0F048175907AB
:103EE00099F4109761F012960C93129713961C9305
:103EF0003296CF01DF91CF911F910F9108950093DA
:103F0000E2031093E303F4CF2115310551F042177A
:103F1000530738F0A901DB019A01BD01DF01F80167
:103F2000C1CFEF01F9CF9093E3038093E203CDCFAC
:103F3000FE01E20FF31F81939193225031093983DF
:103F40002883D7CF2091E0033091E103232B41F464
:103F500020910201309103013093E1032093E003AB
:103F600020910001309101012115310541F42DB757
:103F70003EB74091040150910501241B350BE0919F
:103F8000E003F091E103E217F307A0F42E1B3F0BCF
:103F90002817390778F0AC014E5F5F4F24173507BB
:103FA00048F04E0F5F1F5093E1034093E00381936D
:103FB00091939FCFF0E0E0E09CCFCF93DF93009709
:103FC000E9F0FC01329713821282A091E203B091D2
:103FD000E303ED0130E020E01097A1F4208131816E
:103FE000820F931F2091E0033091E10328173907D6
:103FF00009F061C0F093E103E093E003DF91CF911A
:104000000895EA01CE17DF07E8F54A815B819E013A
:1040100041155105B1F7E901FB83EA8349915991B3
:10402000C40FD51FEC17FD0761F4808191810296C2
:10403000840F951FE90199838883828193819B83F3
:104040008A83F0E0E0E012968D919C91139700979F
:10405000B9F52D913C911197CD010296820F931FD6
:104060002091E0033091E1032817390739F63097A2
:1040700051F51092E3031092E203B093E103A09391
:10408000E003BCCFD383C28340815181840F951F4D
:10409000C817D90761F44E5F5F4F88819981480F37
:1040A000591F518340838A819B8193838283211589
:1040B000310509F0B0CFF093E303E093E2039ECF24
:1040C000FD01DC01C0CF13821282D7CF4F925F92E5
:1040D0006F927F928F929F92AF92BF92CF92DF9218
:1040E000EF92FF920F931F93CF93DF938C01009772
:1040F00099F4CB01DF91CF911F910F91FF90EF9039
:10410000DF90CF90BF90AF909F908F907F906F90F7
:104110005F904F900C94411FFC01E60FF71F9C012C
:1041200022503109E217F30708F4AEC0D901CD914E
:10413000DC911197C617D70720F1C530D10578F06B
:10414000CE0104978617970750F0C61BD70B22970E
:10415000C193D1936D937C93CF010E94DD1FC80161
:10416000DF91CF911F910F91FF90EF90DF90CF9053
:10417000BF90AF909F908F907F906F905F904F9087
:1041800008955B01AC1ABD0A4C018C0E9D1EA091D6
:10419000E203B091E303512C412CF12CE12C109758
:1041A00031F58091E0039091E1038815990509F0BC
:1041B0005CC04616570608F058C0809100019091E7
:1041C0000101009741F48DB79EB7409104015091D1
:1041D0000501841B950BE817F90708F055C0F0930B
:1041E000E103E093E003F90171836083B8CF8D911F
:1041F0009C91119712966C90129713967C9013973E
:10420000A815B90559F56C0142E0C40ED11CCA14B9
:10421000DB0420F1AC014A195B09DA01129615970B
:1042200080F06282738251834083D9016D937C93C5
:10423000E114F10471F0D7011396FC93EE931297F9
:104240008ECF22968C0F9D1FF90191838083F301FD
:10425000EFCFF093E303E093E20381CF48165906D2
:1042600008F42C017D01D3019ACFCB010E94411F9C
:104270007C01009749F0AE01B8010E944C21C801B1
:104280000E94DD1F87016BCF10E000E068CF81E066
:1042900090E0F8940C947021FB01DC0102C00190C5
:1042A0000D9241505040D8F70895FC018191861736
:1042B00021F08823D9F7992708953197CF010895E0
:1042C000FB01DC018D91019080190110D9F3990B4C
:1042D0000895FB01DC0101900D920020E1F70895A3
:0442E000F894FFCF80
:1042E4000000E4038000000000007D037903000067
:1042F4000000D0039C0331056F051B05E904C804C5
:10430400940473041D04EE03EB08D4120214BCFFDE
:10431400000002147F0A180A00000000FD0D0000CE
:104324000000D0039C0331056F051B05E904C80494
:10433400940473041D04EE0300000000D0039C03E6
:1043440031056F051B05E904C804940473041D04B6
:10435400EE036C08D4120214BCFF000002147F0A9E
:10436400180A00000000F5022D025A024203BD02A1
:104374006902AF020D0A006E616E00696E66006F1D
:10438400766600783A200020793A2000207A3A2094
:10439400004D6F746F727320617265206E6F7420AC
:1043A400656E61626C6564210053746F7070696E30
:1043B40067206A6F62004261736520726F74617472
:1043C400696F6E3A20004C6F7765722061726D20C0
:1043D400726F746174696F6E3A2000557070657203
:1043E4002061726D20726F746174696F6E3A20007F
:1043F4005374617274696E6720726F626F742E2ECB
:104404002E004E6F7420656E6F7567682061726749
:10441400756D656E747300456E61626C65204D6FD9
:10442400746F72730044697361626C65204D6F74BC
:104434006F72730072004E6F7420656E6F756768DB
:1044440020617267756D656E74732C206E6565648A
:104454002061746C656173742032007800526F744B
:104464006174696E67206C6F7765722061726D3A52
:1044740020002044656772656573007900526F748B
:104484006174696E6720626173653A20007A005234
:104494006F746174696E67207570706572206172E3
:1044A4006D3A200070004E6F7420656E6F756768FA
:1044B40020617267756D656E74732C206E6565641A
:0C44C4002061746C65617374203300008B
:00000001FF
